:020000040800F2
:100000000050002021020008270200082B020008EF
:100010009D020008A1020008E9020008000000009B
:100020000000000000000000000000003103000894
:100030003503000800000000390300083D030008F4
:100040004D0300084D0300084D0300084D03000850
:100050004D0300084D0300084D0300084D03000840
:100060004D0300084D0300084D0300084D03000830
:100070004D0300084D0300084D0300084D03000820
:100080004D0300084D0300084D0300084D03000810
:100090004D0300084D0300084D0300084D03000800
:1000A0004D0300084D0300084D0300084D030008F0
:1000B0004D0300084D0300084D0300084D030008E0
:1000C0004D0300084D0300084D0300084D030008D0
:1000D0004D0300084D0300084D0300084D030008C0
:1000E0004D0300084D0300084D0300080000000008
:1000F0000000000000000000000000000000000000
:1001000000000000000000005FF808F100B583B0B7
:1001100000F0AAF9304B314A1360314A1360314B79
:10012000314A32498B4204D21168196004330432D7
:10013000F7E72A4B1A682E4B9A4200D0FEE7284B6D
:100140001A682C4B9A42F9D1234B2B4A13602B4A45
:1001500013602B4B02E000221A600433294A9342B9
:10016000F9D3254B1B6813B9244B1B6803B1FEE779
:1001700000F086F9694601A800F022F9224C234BD1
:10018000E41AA4100025AC4214DC214C214BE41AE3
:10019000A4100025AC4213DC0099019800F0ECFBA0
:1001A00005461D4C1D4BE41AA410002C0EDC2846FD
:1001B00000F0E2F8154B53F8253098470135E2E797
:1001C000144B53F8253098470135E3E7013C134BB6
:1001D00053F824309847E8E7BABADECA0000002096
:1001E0008400002000000020341C0008880000204B
:1001F0007856341232547698880000202C01002062
:1002000088000020300100207803000878030008EF
:1002100078030008780300087803000878030008D2
:1002200008B5FFF773FF00BEFEE71EF0040F0CBF1A
:10023000EFF30880EFF309807146414A10472DE93A
:10024000F04182B004468846124B5E6B9F6B9D6AFC
:100250001B6B13F0020F03D00E4BDB6A002B0CDB81
:100260000D4800F0B5F8CDF800803B4632462946EF
:10027000204600F009F900BEFEE74BF6AB6100F046
:100280007DF90028ECD0034B4FF00042DA6202B057
:10029000BDE8F08100ED00E0D41B000800BEFEE7E1
:1002A0001EF0040F0CBFEFF30880EFF309807146D6
:1002B000244A10472DE9F04182B004468846084B95
:1002C0005E6B9F6B9D6A074800F082F8CDF8008056
:1002D0003B4632462946204600F0D6F800BEFEE7EF
:1002E00000ED00E0E41B00081EF0040F0CBFEFF36C
:1002F0000880EFF309807146134A10472DE9F04159
:1003000082B004468846084B5E6B9F6B9D6A074827
:1003100000F05EF8CDF800803B4632462946204684
:1003200000F0B2F800BEFEE700ED00E0F01B0008B0
:1003300000BEFEE700BEFEE700BEFEE7704700001D
:100340003F020008B5020008FD02000800BEFEE7FB
:10035000341C00080000002088000020341C000825
:100360000000000000000000880000203001002094
:08037000000000000000000085
:10037800FEE7000008B503460C4A12685AB10B4A5A
:100388001068033323F003030344094A934206D851
:10039800064A136008BD054A06491160EFE700F0F8
:1003A80057FF0C2303604FF0FF30F3E78C00002069
:1003B800004C00203001002001230360014B0B603A
:1003C800704700BF040000200FB400B583B004AB31
:1003D80053F8042B01938021064800F06BFF002896
:1003E80003DD0146034800F037F803B05DF804EB7D
:1003F80004B07047940000202DE9F04385B004460E
:100408000F4643560BB10E461EE0042528462146EA
:10041800ABBE0446384605B0BDE8F08314F9011BAD
:1004280004AA1A4402F8101C0133AB42F6D304AAFA
:100438001344002203F8102C4FF00408E946404604
:100448004946ABBE8046761B002EE3D03546102EBB
:1004580028BF10250023E8E708B5FFF7CDFF08BD42
:1004680008B500F0FDF8024A024B9A6008BD00BFCB
:100478000000000800ED00E008B500F019F908BD1B
:10048800F8B504460D4617461E462748FFF79CFF59
:1004980021682648FFF798FF61682548FFF794FF11
:1004A800A1682448FFF790FFE1682348FFF78CFF15
:1004B80021692248FFF788FF61692148FFF784FF17
:1004C800A1692048FFF780FFE1691F48FFF77CFF1B
:1004D8001E48FFF779FF29461D48FFF775FF1D4C99
:1004E800E16A1D48FFF770FF216B1C48FFF76CFF9E
:1004F800E16B1B48FFF768FF15F0800F0AD115F470
:10050800004F0CD11748FFF75FFF06991648FFF711
:100518005BFFF8BD39461548FFF756FFEFE7314650
:100528001348FFF751FFEDE7B81A0008C81A00088A
:10053800D81A0008E81A0008F81A0008081B00086A
:10054800181B0008281B0008381B0008481B000857
:10055800541B000800ED00E0641B0008741B000831
:10056800841B0008B41B0008BC1B0008941B00086F
:10057800A41B000883691A888A4201D000207047AA
:100588000268033A012A03D80233836101207047C5
:100598000020704782B00023019300932C4A13680F
:1005A80043F4803313602A4B1B6803F40033009331
:1005B800019B01330193009B1BB9019BB3F5A06F0D
:1005C800F1D1234B1B6813F4003F06D0012300939D
:1005D800009B012B04D002B0704700230093F7E77B
:1005E8001C4B1A6842F010021A601A6822F00302C3
:1005F8001A601A6842F002021A60A3F580535A681A
:100608005A605A685A605A6842F480625A605A6856
:1006180022F47C125A605A6842F4E8125A601A6846
:1006280042F080721A600A4B1B6813F0007FFAD000
:10063800074B5A6822F003025A605A6842F00202D5
:100648005A60034B5B6803F00C03082BF9D1C2E72F
:10065800001002400020024008B5FFF79BFF08BDCC
:1006680008B5104B1A6842F001021A6059680E4A20
:100678000A405A601A6822F0847222F480321A60A2
:100688001A6822F480221A605A6822F4FE025A601C
:100698004FF41F029A60FFF7DFFF044B4FF0006230
:1006A8009A6008BD001002400000FFF800ED00E06D
:1006B8001F4B5B6803F00C03042B15D0082B17D0D5
:1006C8001BB11C4B1C4A1A6002E01A4B1A4A1A60EA
:1006D800174B5B68C3F30313184AD35CDAB21549A6
:1006E8000B68D3400B607047124B134A1A60EFE750
:1006F8000F4A53685268C3F38343023312F4803FAE
:100708000AD00B4A526812F4003F0BD00C4A02FB85
:1007180003F3084A1360DBE7094A02FB03F3054ABF
:100728001360D5E7044A02FB03F3024A1360CFE7DC
:10073800001002401C00002000127A000C0000206B
:1007480000093D002C4B00225A60596821F0200115
:100758005960596841F040015960596821F0800199
:100768005960596821F480715960596821F4007101
:100778005960596821F480615960596821F4006111
:100788005960596821F4805159600D215960102130
:100798005960596821F480015960596841F4000191
:1007A8005960996841F002019960996821F0040143
:1007B8009960996821F008019960996821F480711D
:1007C8009960996821F4006199609A60996821F4A8
:1007D800004199609A60996821F48011996099683C
:1007E80021F4000199601421D9625A639A6842F091
:1007F80001029A60704700BF00240140084B9A68C4
:1008080042F001029A609A6842F480029A60044BAE
:100818001B6813F0020FFAD0014BD86C80B27047F6
:100828000024014010B4032825D0042843D002280E
:1008380001D010BC7047072910D90F29F9D8A1F1A8
:100848000804E4B2A4000F23A3402B48016821EA5E
:10085800030302FA04F119430160EAE789000F2350
:1008680003FA01F0254C236823EA000302FA01F198
:1008780019432160DDE7072910D90F29D9D8A1F13B
:100888000800C0B280000F2383401D4C216821EA74
:10089800030302FA00F119432160CAE789000F2314
:1008A80003FA01F0174C236823EA000302FA01F166
:1008B80019432160BDE7072910D90F29B9D8A1F13B
:1008C8000803DBB29B000F2098400F4C216821EAF7
:1008D800000002FA03F101432160AAE789000F230F
:1008E80003FA01F0094C236823EA000302FA01F134
:1008F800194321609DE700BF04080140000801403A
:10090800040C0140000C014004100140001001409B
:10091800034B4FF480321A60043301221A60704787
:10092800001002401F291CD801280BD010B1022842
:1009380010D07047012303FA01F10A4A13680B43E8
:1009480013607047012303FA01F1074A13680B4348
:1009580013607047012303FA01F1044A13680B433B
:1009680013607047141002401C1002401810024017
:1009780008B5FFF7CDFF02210846FFF7D3FF09218D
:100988000220FFF7CFFF002211460220FFF74AFF9F
:10099800FFF7D8FEFFF732FF044600F0B5F924A3AD
:1009A800D3E9002300F01AFA23A3D3E9002300F0C7
:1009B8005DF80022264B00F03BFB00F021FC00B262
:1009C80000F0A2F91EA3D3E9002300F04FF800F0CD
:1009D80017FC204B18804FF6FF7090FBF4F001389D
:1009E80080B242F2107393FBF0F01B4B188000208A
:1009F80000F08AF914A3D3E9002300F039F800F0D5
:100A0800FFFB00F081F902460B460020134900F075
:100A18000FFB00F0F5FB00F077F909A3D3E90023F9
:100A280000F024F800F0ECFB0D4B1860B2E700BFB3
:100A380085EB51B81E851340AED85F764F1E663FD2
:100A4800666666666612714083DBB5DCE1796B3FEA
:100A58000000244024010020140100200000F03F81
:100A68002801002081F0004102E000BF83F000432C
:100A780030B54FEA41044FEA430594EA050F08BF31
:100A880090EA020F1FBF54EA000C55EA020C7FEAF5
:100A9800645C7FEA655C00F0E2804FEA5454D4EB72
:100AA8005555B8BF6D420CDD2C4480EA020281EA3C
:100AB800030382EA000083EA010180EA020281EA74
:100AC8000303362D88BF30BD11F0004F4FEA0131C6
:100AD8004FF4801C4CEA113102D0404261EB4101D5
:100AE80013F0004F4FEA03334CEA133302D052425B
:100AF80063EB430394EA050F00F0A780A4F1010417
:100B0800D5F1200E0DDB02FA0EFC22FA05F2801850
:100B180041F1000103FA0EF2801843FA05F3594136
:100B28000EE0A5F120050EF1200E012A03FA0EFCB5
:100B380028BF4CF0020C43FA05F3C01851EBE371DF
:100B480001F0004507D54FF0000EDCF1000C7EEBFC
:100B580000006EEB0101B1F5801F1BD3B1F5001F3A
:100B68000CD349085FEA30004FEA3C0C04F1010459
:100B78004FEA445212F5800F80F09A80BCF1004F82
:100B880008BF5FEA500C50F1000041EB045141EA04
:100B9800050130BD5FEA4C0C404141EB010111F405
:100BA800801FA4F10104E9D191F0000F04BF0146B0
:100BB8000020B1FA81F308BF2033A3F10B03B3F18E
:100BC80020020CDA0C3208DD02F1140CC2F10C021E
:100BD80001FA0CF021FA02F10CE002F11402D8BF7C
:100BE800C2F1200C01FA02F120FA0CFCDCBF41EA48
:100BF8000C019040E41AA2BF01EB0451294330BD17
:100C08006FEA04041F3C1CDA0C340EDC04F11404F3
:100C1800C4F1200220FA04F001FA02F340EA0300CA
:100C280021FA04F345EA030130BDC4F10C04C4F110
:100C3800200220FA02F001FA04F340EA03002946F0
:100C480030BD21FA04F0294630BD94F0000F83F43A
:100C5800801306BF81F480110134013D4EE77FEA1D
:100C6800645C18BF7FEA655C29D094EA050F08BF69
:100C780090EA020F05D054EA000C04BF194610464A
:100C880030BD91EA030F1EBF0021002030BD5FEA8E
:100C9800545C05D14000494128BF41F0004130BDB6
:100CA80014F580043CBF01F5801130BD01F000450A
:100CB80045F0FE4141F470014FF0000030BD7FEA7D
:100CC800645C1ABF194610467FEA655C1CBF0B4678
:100CD800024650EA013406BF52EA033591EA030F8F
:100CE80041F4002130BD00BF90F0000F04BF002187
:100CF800704730B54FF4806404F132044FF00005BA
:100D08004FF0000150E700BF90F0000F04BF002132
:100D1800704730B54FF4806404F1320410F0004598
:100D280048BF40424FF000013EE700BF42004FEA93
:100D3800E2014FEA31014FEA02701FBF12F07F4310
:100D480093F07F4F81F06051704732F07F4208BFC7
:100D5800704793F07F4F04BF41F40021704730B5CE
:100D68004FF4607401F0004521F000411CE700BF1A
:100D780050EA010208BF704730B54FF000050AE09D
:100D880050EA010208BF704730B511F0004502D59E
:100D9800404261EB41014FF4806404F132045FEAA0
:100DA800915C3FF4D8AE4FF003025FEADC0C18BF49
:100DB80003325FEADC0C18BF033202EBDC02C2F13B
:100DC800200300FA03FC20FA02F001FA03FE40EACD
:100DD8000E0021FA02F11444BDE600BF70B54FF0D1
:100DE800FF0C4CF4E06C1CEA11541DBF1CEA1355AF
:100DF80094EA0C0F95EA0C0F00F0DEF82C4481EA17
:100E0800030621EA4C5123EA4C5350EA013518BF36
:100E180052EA033541F4801143F4801338D0A0FB23
:100E280002CE4FF00005E1FB02E506F00042E0FBD0
:100E380003E54FF00006E1FB03569CF0000F18BFD6
:100E48004EF0010EA4F1FF04B6F5007F64F540747E
:100E580004D25FEA4E0E6D4146EB060642EAC62111
:100E680041EA55514FEAC52040EA5E504FEACE2E7E
:100E7800B4F1FD0C88BFBCF5E06F1ED8BEF1004F81
:100E880008BF5FEA500E50F1000041EB045170BDFD
:100E980006F0004646EA010140EA020081EA030141
:100EA800B4EB5C04C2BFD4EB0C0541EA045170BD3D
:100EB80041F480114FF0000E013C00F3AB8014F1B7
:100EC800360FDEBF002001F0004170BDC4F1000400
:100ED800203C35DA0C341BDC04F11404C4F1200581
:100EE80000FA05F320FA04F001FA05F240EA0200DC
:100EF80001F0004221F0004110EBD37021FA04F612
:100F080042EB06015EEA430E08BF20EAD37070BDCB
:100F1800C4F10C04C4F1200500FA04F320FA05F02A
:100F280001FA04F240EA020001F0004110EBD3702C
:100F380041F100015EEA430E08BF20EAD37070BD9C
:100F4800C4F1200500FA05F24EEA020E20FA04F375
:100F580001FA05F243EA020321FA04F001F0004124
:100F680021FA04F220EA020000EBD3705EEA430E95
:100F780008BF20EAD37070BD94F0000F0FD101F0C4
:100F88000046400041EB010111F4801F08BF013CFD
:100F9800F7D041EA060195F0000F18BF704703F03B
:100FA8000046520043EB030313F4801F08BF013DC2
:100FB800F7D043EA0603704794EA0C0F0CEA13557E
:100FC80018BF95EA0C0F0CD050EA410618BF52EA38
:100FD8004306D1D181EA030101F000414FF000003E
:100FE80070BD50EA410606BF1046194652EA43064C
:100FF80019D094EA0C0F02D150EA013613D195EAC0
:101008000C0F05D152EA03361CBF104619460AD107
:1010180081EA030101F0004141F0FE4141F4700111
:101028004FF0000070BD41F0FE4141F4780170BD01
:1010380070B54FF0FF0C4CF4E06C1CEA11541DBF66
:101048001CEA135594EA0C0F95EA0C0F00F0A7F868
:10105800A4EB050481EA030E52EA03354FEA013195
:1010680000F088804FEA03334FF0805545EA1313A8
:1010780043EA12634FEA022245EA111545EA106570
:101088004FEA00260EF000419D4208BF964244F107
:10109800FD0404F5407402D25B084FEA3202B61A26
:1010A80065EB03055B084FEA32024FF480104FF4FA
:1010B800002CB6EB020E75EB030E22BFB61A75466E
:1010C80040EA0C005B084FEA3202B6EB020E75EB01
:1010D800030E22BFB61A754640EA5C005B084FEA69
:1010E8003202B6EB020E75EB030E22BFB61A754636
:1010F80040EA9C005B084FEA3202B6EB020E75EB41
:10110800030E22BFB61A754640EADC0055EA060E01
:1011180018D04FEA051545EA16754FEA06164FEA44
:10112800C30343EA52734FEAC2025FEA1C1CC0D1F0
:1011380011F4801F0BD141EA00014FF000004FF07D
:10114800004CB6E711F4801F04BF01430020B4F13E
:10115800FD0C88BFBCF5E06F3FF6AFAEB5EB030CF6
:1011680004BFB6EB020C5FEA500C50F1000041EBF3
:10117800045170BD0EF0004E4EEA113114EB5C04C0
:10118800C2BFD4EB0C0541EA045170BD41F4801193
:101198004FF0000E013C90E645EA060E8DE60CEA9B
:1011A800135594EA0C0F08BF95EA0C0F3FF43BAFB8
:1011B80094EA0C0F0AD150EA01347FF434AF95EA6F
:1011C8000C0F7FF425AF104619462CE795EA0C0F53
:1011D80006D152EA03353FF4FDAE1046194622E720
:1011E80050EA410618BF52EA43067FF4C5AE50EAFA
:1011F80041047FF40DAF52EA43057FF4EBAE12E7EA
:101208004FEA410212F5001215D211D56FF4787326
:10121800B3EB625212D94FEAC12343F0004343EAC9
:10122800505311F0004F23FA02F018BF40427047A4
:101238004FF00000704750EA013005D111F000402E
:1012480008BF6FF0004070474FF00000704700BFC4
:10125800014B1868704700BF2000002030B5141EED
:1012680005469BB0184605DA8B234FF0FF302B60FC
:101278001BB030BD4FF40273ADF80C300CBF2346E1
:1012880004F1FF33029305934FF6FF730091049125
:10129800ADF80E3002461E9B6946284600F072F8EB
:1012A800431CBCBF8B232B60002CE1D00022009B89
:1012B8001A70DDE707B5009313460A46014603484E
:1012C8000068FFF7CBFF03B05DF804FB20000020A7
:1012D8002DE9F0478E6882469E420C469046994614
:1012E80037D88A8912F4906F31D0022325680969AA
:1012F8006F1A656905EB450595FBF3F509F10103DF
:101308003B449D4238BF1D46530530D5294600F061
:1013180035FB064650B90C234FF0FF30CAF80030B1
:10132800A38943F04003A381BDE8F0873A462169C9
:1013380000F0B4FAA38923F4906343F08003A381F7
:1013480026613E4426604E466561ED1BA5604E450C
:1013580000D94E4632464146206800F0AAFAA368F2
:1013680000209B1BA36023681E442660DCE72A46F6
:1013780000F05EFB06460028E2D12169504600F0E5
:10138800B1FAC8E72DE9F04F9DB003938B898046E9
:101398001D060C4616460FD50B696BB9402100F0A7
:1013A800EDFA2060206128B90C23C8F800304FF00E
:1013B800FF30C7E0402363610023099320238DF8A1
:1013C800293030234FF0010B8DF82A3037463D463F
:1013D80015F8013B0BB1252B3ED1B7EB060A0BD014
:1013E8005346324621464046FFF772FF013000F06F
:1013F800A480099B534409933B78002B00F09D80FF
:1014080000234FF0FF32CDE90523049307938DF8AD
:1014180053301A932F46052217F8011B4F4800F046
:101428002FFA049BD0B9D90644BF20228DF8532047
:101438001A0744BF2B228DF853202A782A2A15D060
:101448002F4600200A25079A394611F8013B303B00
:10145800092B4DD9B8B10FE02F46B8E73F4A3D46B2
:10146800801A0BFA00F018430490D3E7039A111D71
:1014780012680391002A01DB079204E0524243F00C
:101488000203079204933B782E2B0CD17B782A2BEE
:1014980033D1039B02371A1D1B680392002BB8BF78
:1014A8004FF0FF3305932E4D03223978284600F07C
:1014B800E7F938B14023401B03FA00F0049B0137D9
:1014C800034304933978062226487E1C8DF8281099
:1014D80000F0D6F9002838D0234B13BB039B073301
:1014E80023F0070308330393099B4B4409936DE7E3
:1014F80005FB023201200F46A6E700230A251946FC
:1015080001370593384610F8012B303A092A03D9D8
:10151800002BC8D00591C6E705FB0121012307462A
:10152800F0E703AB00932246104B04A94046AFF303
:101538000080B0F1FF3F8146D6D1A3895B063FF515
:1015480036AF09981DB0BDE8F08F03AB0093224673
:10155800064B04A9404600F081F8EAE7001C0008A1
:10156800061C00080A1C000800000000D912000828
:101578002DE9F04791461F468A680B690646934253
:10158800B8BF1346C9F8003091F843200C46DDF87F
:10159800208012B10133C9F800302368990642BF90
:1015A800D9F800300233C9F80030256815F006056F
:1015B80007D104F1190AE368D9F800209B1AAB4255
:1015C80029DC94F843302268003318BF01239206BF
:1015D8002ED404F1430239463046C047013021D0A9
:1015E8002368E56803F00603042B18BF0025D9F823
:1015F80000204FF0000908BFAD1AA368226908BF90
:1016080025EAE5759342C4BF9B1AED181A344D4577
:101618001AD1002008E00123524639463046C04717
:10162800013003D14FF0FF30BDE8F0870135C2E744
:101638003020E11881F843005A1C94F845102244E0
:10164800023382F84310C4E7012322463946304664
:10165800C0470130E6D009F10109D8E72DE9F04388
:1016680001F1430C0C46097E85B06E2917460646E3
:1016780098460C9A00F0B38022D8632936D00AD84D
:10168800002900F0B980582900F0838004F1420550
:1016980084F8421032E0642901D06929F6D1206823
:1016A8001368050603F104012AD51B681160002B95
:1016B80003DA2D225B4284F843206F480A2239E07E
:1016C800732900F09D8008D86F2920D07029DDD1BA
:1016D800236843F02003236003E0752917D0782995
:1016E800D4D17823654884F8453055E0136804F16F
:1016F8004205191D1B68116084F8423001238CE0F3
:101708001B6810F0400F116018BF1BB2CFE71368B9
:101718002568181D1060280601D51B6802E06806B8
:10172800FBD51B886F2914BF0A22082252480021C2
:1017380084F843106568002DA560C0F29580216883
:1017480021F004012160002B3DD1002D40F08E8056
:101758006546082A0BD12368DB0708D52369626828
:101768009A42DEBF302305F8013C05F1FF35ACEBAA
:1017780005032361CDF800803B4603AA2146304685
:10178800FFF7F6FE01304DD14FF0FF3005B0BDE850
:10179800F083394884F84510136821681D1D1B68BB
:1017A80015600A060BD5CA0744BF41F02001216025
:1017B8001BB9226822F0200222601022B7E74D06EA
:1017C80048BF9BB2EFE76546B3FBF2F102FB11336A
:1017D800C35C05F8013D0B460029F5D1B9E713684C
:1017E8002568181D6169106028061B6801D51960F5
:1017F80002E06A06FBD51980002365462361B9E734
:101808001368191D11601D6862680021284600F0E0
:1018180037F808B1401B606063682361002384F8CF
:101828004330A7E723692A4639463046C047013086
:10183800AAD023689B0713D4E068039B9842B8BFDB
:101848001846A3E701234A4639463046C0470130C7
:101858009AD00135E368039A9B1AAB42F2DCEBE7B6
:10186800002504F11909F5E7002BACD1037804F140
:10187800420584F842306CE7111C0008221C00085D
:1018880010B5C9B202449042034601D1002303E0D7
:101898001C7801308C42F6D1184610BD10B5431E95
:1018A8000A44914200D110BD11F8014B03F8014FD1
:1018B800F7E7884210B501EB020307D8421E9942A8
:1018C8000AD011F8014B02F8014FF8E78342F5D925
:1018D8008118D21AD34200D110BD13F8014D01F876
:1018E800014DF7E738B50546002943D051F8043CC7
:1018F8000C1F002BB8BFE41800F0D0F81E4A13687C
:10190800104633B9636014602846BDE8384000F0DB
:10191800C6B8A3420BD921686218934201BF1A685E
:101928005B685218226063600460EDE713465A68EA
:101938000AB1A242FAD919685818A0420BD12068F6
:101948000144581882421960DED110685268014477
:1019580019605A60D8E702D90C232B60D4E72068B5
:1019680021188A4201BF1168526809182160626013
:101978005C60C9E738BD00BF1801002070B5CD1CF8
:1019880025F0030508350C2D38BF0C25002D06461B
:1019980001DBA94203D90C233360002070BD00F09D
:1019A8007DF8214A1468214691B9204C23681BB957
:1019B800304600F063F820602946304600F05EF8B3
:1019C800431C24D10C233046336000F068F8E4E768
:1019D8000B685B1B18D40B2B0FD90B60CC18CD50A0
:1019E800304600F05CF804F10B00231D20F00700DE
:1019F800C31AD3D05A42E250D0E74B688C4216BF84
:101A0800636013600C46EBE70C464968CCE7C41CDE
:101A180024F00304A04205D0211A304600F02EF825
:101A28000130CFD02560DBE7180100201C01002021
:101A3800F8B5074614460E4621B9BDE8F8401146E8
:101A4800FFF79CBF22B9FFF74DFF25462846F8BD92
:101A580000F026F8A0420FD221463846FFF78EFF45
:101A680005460028F2D031462246FFF717FF3146D7
:101A78003846FFF737FFE9E73546E7E738B500238B
:101A8800054C054608462360FEF774FC431C02D14A
:101A9800236803B12B6038BD2001002070477047D0
:101AA80051F8043C181F002BBCBF0B58C0187047D6
:101AB800537461636B206672616D653A0A000000B9
:101AC800205230203D2020253038580A00000000E0
:101AD800205231203D2020253038580A00000000CF
:101AE800205232203D2020253038580A00000000BE
:101AF800205233203D2020253038580A00000000AD
:101B080020523132203D20253038580A000000008C
:101B1800204C52203D2020253038580A0000000073
:101B2800205043203D2020253038580A000000006E
:101B380020505352203D20253038580A000000001C
:101B48004653522F4641523A0A000000204346535A
:101B580052203D2020253038580A0000204846539E
:101B680052203D2020253038580A00002044465392
:101B780052203D2020253038580A00002041465385
:101B880052203D2020253038580A0000204D4D466F
:101B98004152203D20253038580A00002042464155
:101BA80052203D2020253038580A00004D697363C3
:101BB8000A000000204C522F4558435F52455455A7
:101BC800524E3D20253038580A0000005B486172AB
:101BD800644661756C745D0A000000005B427573B1
:101BE8004661756C745D0A005B5573616765466193
:101BF800756C745D0A000000232D302B2000686C82
:101C08004C00656667454647003031323334353617
:101C18003738394142434445460030313233343550
:0B1C280036373839616263646566007E
:101C340078563412900000200000000000000000DC
:101C440000000000010203040607080900A24A0478
:101C5400240000200000000000000000000000003C
:101C64000000000000000000000000000000000070
:101C74000000000000000000000000000000000060
:101C84000000000000000000000000000000000050
:101C94000000000000000000000000000000000040
:101CA4000000000000000000000000000000000030
:081CB400000000003254769894
:040000050800010DE1
:00000001FF
